{
  "_format": "hh-sol-artifact-1",
  "contractName": "L1PoolManager",
  "sourceName": "contracts/da/core/L1/L1PoolManager.sol",
  "abi": [
    {
      "inputs": [],
      "stateMutability": "nonpayable",
      "type": "constructor"
    },
    {
      "inputs": [],
      "name": "AccessControlBadConfirmation",
      "type": "error"
    },
    {
      "inputs": [
        {
          "internalType": "address",
          "name": "account",
          "type": "address"
        },
        {
          "internalType": "bytes32",
          "name": "neededRole",
          "type": "bytes32"
        }
      ],
      "name": "AccessControlUnauthorizedAccount",
      "type": "error"
    },
    {
      "inputs": [
        {
          "internalType": "address",
          "name": "target",
          "type": "address"
        }
      ],
      "name": "AddressEmptyCode",
      "type": "error"
    },
    {
      "inputs": [
        {
          "internalType": "address",
          "name": "account",
          "type": "address"
        }
      ],
      "name": "AddressInsufficientBalance",
      "type": "error"
    },
    {
      "inputs": [],
      "name": "AlreadyClaimed",
      "type": "error"
    },
    {
      "inputs": [
        {
          "internalType": "uint256",
          "name": "id",
          "type": "uint256"
        }
      ],
      "name": "ChainIdIsNotSupported",
      "type": "error"
    },
    {
      "inputs": [
        {
          "internalType": "uint256",
          "name": "chainId",
          "type": "uint256"
        }
      ],
      "name": "ChainIdNotSupported",
      "type": "error"
    },
    {
      "inputs": [],
      "name": "EnforcedPause",
      "type": "error"
    },
    {
      "inputs": [],
      "name": "ErrorBlockChain",
      "type": "error"
    },
    {
      "inputs": [],
      "name": "ExpectedPause",
      "type": "error"
    },
    {
      "inputs": [],
      "name": "FailedInnerCall",
      "type": "error"
    },
    {
      "inputs": [],
      "name": "InvalidInitialization",
      "type": "error"
    },
    {
      "inputs": [
        {
          "internalType": "uint256",
          "name": "minAmount",
          "type": "uint256"
        },
        {
          "internalType": "uint256",
          "name": "providedAmount",
          "type": "uint256"
        }
      ],
      "name": "LessThanMinStakeAmount",
      "type": "error"
    },
    {
      "inputs": [
        {
          "internalType": "uint256",
          "name": "MinTransferAmount",
          "type": "uint256"
        },
        {
          "internalType": "uint256",
          "name": "value",
          "type": "uint256"
        }
      ],
      "name": "LessThanMinTransferAmount",
      "type": "error"
    },
    {
      "inputs": [
        {
          "internalType": "uint256",
          "name": "amount",
          "type": "uint256"
        }
      ],
      "name": "LessThanZero",
      "type": "error"
    },
    {
      "inputs": [
        {
          "internalType": "uint256",
          "name": "PoolIndex",
          "type": "uint256"
        }
      ],
      "name": "NewPoolIsNotCreate",
      "type": "error"
    },
    {
      "inputs": [],
      "name": "NoReward",
      "type": "error"
    },
    {
      "inputs": [],
      "name": "NotEnoughETH",
      "type": "error"
    },
    {
      "inputs": [
        {
          "internalType": "address",
          "name": "ERC20Address",
          "type": "address"
        }
      ],
      "name": "NotEnoughToken",
      "type": "error"
    },
    {
      "inputs": [],
      "name": "NotInitializing",
      "type": "error"
    },
    {
      "inputs": [
        {
          "internalType": "uint256",
          "name": "poolIndex",
          "type": "uint256"
        }
      ],
      "name": "PoolIsCompleted",
      "type": "error"
    },
    {
      "inputs": [],
      "name": "ReentrancyGuardReentrantCall",
      "type": "error"
    },
    {
      "inputs": [
        {
          "internalType": "address",
          "name": "token",
          "type": "address"
        }
      ],
      "name": "SafeERC20FailedOperation",
      "type": "error"
    },
    {
      "inputs": [
        {
          "internalType": "address",
          "name": "ERC20Address",
          "type": "address"
        }
      ],
      "name": "StableCoinNotSupported",
      "type": "error"
    },
    {
      "inputs": [
        {
          "internalType": "address",
          "name": "token",
          "type": "address"
        },
        {
          "internalType": "bool",
          "name": "isSupported",
          "type": "bool"
        }
      ],
      "name": "TokenIsAlreadySupported",
      "type": "error"
    },
    {
      "inputs": [
        {
          "internalType": "address",
          "name": "token",
          "type": "address"
        }
      ],
      "name": "TokenIsNotSupported",
      "type": "error"
    },
    {
      "anonymous": false,
      "inputs": [
        {
          "indexed": true,
          "internalType": "address",
          "name": "user",
          "type": "address"
        },
        {
          "indexed": false,
          "internalType": "uint256",
          "name": "startPoolId",
          "type": "uint256"
        },
        {
          "indexed": false,
          "internalType": "uint256",
          "name": "endPoolId",
          "type": "uint256"
        },
        {
          "indexed": true,
          "internalType": "address",
          "name": "token",
          "type": "address"
        },
        {
          "indexed": false,
          "internalType": "uint256",
          "name": "amount",
          "type": "uint256"
        },
        {
          "indexed": false,
          "internalType": "uint256",
          "name": "fee",
          "type": "uint256"
        }
      ],
      "name": "ClaimEvent",
      "type": "event"
    },
    {
      "anonymous": false,
      "inputs": [
        {
          "indexed": true,
          "internalType": "address",
          "name": "token",
          "type": "address"
        },
        {
          "indexed": false,
          "internalType": "uint256",
          "name": "poolIndex",
          "type": "uint256"
        }
      ],
      "name": "CompletePoolEvent",
      "type": "event"
    },
    {
      "anonymous": false,
      "inputs": [
        {
          "indexed": false,
          "internalType": "uint256",
          "name": "sourceChainId",
          "type": "uint256"
        },
        {
          "indexed": false,
          "internalType": "uint256",
          "name": "destChainId",
          "type": "uint256"
        },
        {
          "indexed": true,
          "internalType": "address",
          "name": "ERC20Address",
          "type": "address"
        },
        {
          "indexed": true,
          "internalType": "address",
          "name": "from",
          "type": "address"
        },
        {
          "indexed": true,
          "internalType": "address",
          "name": "to",
          "type": "address"
        },
        {
          "indexed": false,
          "internalType": "uint256",
          "name": "value",
          "type": "uint256"
        }
      ],
      "name": "FinalizeERC20",
      "type": "event"
    },
    {
      "anonymous": false,
      "inputs": [
        {
          "indexed": false,
          "internalType": "uint256",
          "name": "sourceChainId",
          "type": "uint256"
        },
        {
          "indexed": false,
          "internalType": "uint256",
          "name": "destChainId",
          "type": "uint256"
        },
        {
          "indexed": true,
          "internalType": "address",
          "name": "from",
          "type": "address"
        },
        {
          "indexed": true,
          "internalType": "address",
          "name": "to",
          "type": "address"
        },
        {
          "indexed": false,
          "internalType": "uint256",
          "name": "value",
          "type": "uint256"
        }
      ],
      "name": "FinalizeETH",
      "type": "event"
    },
    {
      "anonymous": false,
      "inputs": [
        {
          "indexed": false,
          "internalType": "uint256",
          "name": "sourceChainId",
          "type": "uint256"
        },
        {
          "indexed": false,
          "internalType": "uint256",
          "name": "destChainId",
          "type": "uint256"
        },
        {
          "indexed": true,
          "internalType": "address",
          "name": "from",
          "type": "address"
        },
        {
          "indexed": true,
          "internalType": "address",
          "name": "to",
          "type": "address"
        },
        {
          "indexed": false,
          "internalType": "uint256",
          "name": "value",
          "type": "uint256"
        }
      ],
      "name": "FinalizeWETH",
      "type": "event"
    },
    {
      "anonymous": false,
      "inputs": [
        {
          "indexed": false,
          "internalType": "uint64",
          "name": "version",
          "type": "uint64"
        }
      ],
      "name": "Initialized",
      "type": "event"
    },
    {
      "anonymous": false,
      "inputs": [
        {
          "indexed": false,
          "internalType": "uint256",
          "name": "sourceChainId",
          "type": "uint256"
        },
        {
          "indexed": false,
          "internalType": "uint256",
          "name": "destChainId",
          "type": "uint256"
        },
        {
          "indexed": true,
          "internalType": "address",
          "name": "ERC20Address",
          "type": "address"
        },
        {
          "indexed": true,
          "internalType": "address",
          "name": "from",
          "type": "address"
        },
        {
          "indexed": true,
          "internalType": "address",
          "name": "to",
          "type": "address"
        },
        {
          "indexed": false,
          "internalType": "uint256",
          "name": "value",
          "type": "uint256"
        }
      ],
      "name": "InitiateERC20",
      "type": "event"
    },
    {
      "anonymous": false,
      "inputs": [
        {
          "indexed": false,
          "internalType": "uint256",
          "name": "sourceChainId",
          "type": "uint256"
        },
        {
          "indexed": false,
          "internalType": "uint256",
          "name": "destChainId",
          "type": "uint256"
        },
        {
          "indexed": true,
          "internalType": "address",
          "name": "from",
          "type": "address"
        },
        {
          "indexed": true,
          "internalType": "address",
          "name": "to",
          "type": "address"
        },
        {
          "indexed": false,
          "internalType": "uint256",
          "name": "value",
          "type": "uint256"
        }
      ],
      "name": "InitiateETH",
      "type": "event"
    },
    {
      "anonymous": false,
      "inputs": [
        {
          "indexed": false,
          "internalType": "uint256",
          "name": "sourceChainId",
          "type": "uint256"
        },
        {
          "indexed": false,
          "internalType": "uint256",
          "name": "destChainId",
          "type": "uint256"
        },
        {
          "indexed": true,
          "internalType": "address",
          "name": "from",
          "type": "address"
        },
        {
          "indexed": true,
          "internalType": "address",
          "name": "to",
          "type": "address"
        },
        {
          "indexed": false,
          "internalType": "uint256",
          "name": "value",
          "type": "uint256"
        }
      ],
      "name": "InitiateWETH",
      "type": "event"
    },
    {
      "anonymous": false,
      "inputs": [
        {
          "indexed": false,
          "internalType": "address",
          "name": "account",
          "type": "address"
        }
      ],
      "name": "Paused",
      "type": "event"
    },
    {
      "anonymous": false,
      "inputs": [
        {
          "indexed": true,
          "internalType": "bytes32",
          "name": "role",
          "type": "bytes32"
        },
        {
          "indexed": true,
          "internalType": "bytes32",
          "name": "previousAdminRole",
          "type": "bytes32"
        },
        {
          "indexed": true,
          "internalType": "bytes32",
          "name": "newAdminRole",
          "type": "bytes32"
        }
      ],
      "name": "RoleAdminChanged",
      "type": "event"
    },
    {
      "anonymous": false,
      "inputs": [
        {
          "indexed": true,
          "internalType": "bytes32",
          "name": "role",
          "type": "bytes32"
        },
        {
          "indexed": true,
          "internalType": "address",
          "name": "account",
          "type": "address"
        },
        {
          "indexed": true,
          "internalType": "address",
          "name": "sender",
          "type": "address"
        }
      ],
      "name": "RoleGranted",
      "type": "event"
    },
    {
      "anonymous": false,
      "inputs": [
        {
          "indexed": true,
          "internalType": "bytes32",
          "name": "role",
          "type": "bytes32"
        },
        {
          "indexed": true,
          "internalType": "address",
          "name": "account",
          "type": "address"
        },
        {
          "indexed": true,
          "internalType": "address",
          "name": "sender",
          "type": "address"
        }
      ],
      "name": "RoleRevoked",
      "type": "event"
    },
    {
      "anonymous": false,
      "inputs": [
        {
          "indexed": true,
          "internalType": "address",
          "name": "token",
          "type": "address"
        },
        {
          "indexed": false,
          "internalType": "uint256",
          "name": "amount",
          "type": "uint256"
        }
      ],
      "name": "SetMinStakeAmountEvent",
      "type": "event"
    },
    {
      "anonymous": false,
      "inputs": [
        {
          "indexed": true,
          "internalType": "address",
          "name": "token",
          "type": "address"
        },
        {
          "indexed": false,
          "internalType": "bool",
          "name": "isSupport",
          "type": "bool"
        }
      ],
      "name": "SetSupportTokenEvent",
      "type": "event"
    },
    {
      "anonymous": false,
      "inputs": [
        {
          "indexed": true,
          "internalType": "address",
          "name": "user",
          "type": "address"
        },
        {
          "indexed": false,
          "internalType": "uint256",
          "name": "amount",
          "type": "uint256"
        }
      ],
      "name": "StakingETHEvent",
      "type": "event"
    },
    {
      "anonymous": false,
      "inputs": [
        {
          "indexed": true,
          "internalType": "address",
          "name": "user",
          "type": "address"
        },
        {
          "indexed": false,
          "internalType": "uint256",
          "name": "amount",
          "type": "uint256"
        }
      ],
      "name": "StakingWETHEvent",
      "type": "event"
    },
    {
      "anonymous": false,
      "inputs": [
        {
          "indexed": true,
          "internalType": "address",
          "name": "user",
          "type": "address"
        },
        {
          "indexed": true,
          "internalType": "address",
          "name": "token",
          "type": "address"
        },
        {
          "indexed": false,
          "internalType": "uint256",
          "name": "amount",
          "type": "uint256"
        }
      ],
      "name": "StarkingERC20Event",
      "type": "event"
    },
    {
      "anonymous": false,
      "inputs": [
        {
          "indexed": false,
          "internalType": "uint256",
          "name": "Blockchain",
          "type": "uint256"
        },
        {
          "indexed": true,
          "internalType": "address",
          "name": "token",
          "type": "address"
        },
        {
          "indexed": true,
          "internalType": "address",
          "name": "to",
          "type": "address"
        },
        {
          "indexed": false,
          "internalType": "uint256",
          "name": "amount",
          "type": "uint256"
        }
      ],
      "name": "TransferAssertTo",
      "type": "event"
    },
    {
      "anonymous": false,
      "inputs": [
        {
          "indexed": false,
          "internalType": "address",
          "name": "account",
          "type": "address"
        }
      ],
      "name": "Unpaused",
      "type": "event"
    },
    {
      "inputs": [
        {
          "internalType": "uint256",
          "name": "sourceChainId",
          "type": "uint256"
        },
        {
          "internalType": "uint256",
          "name": "destChainId",
          "type": "uint256"
        },
        {
          "internalType": "address",
          "name": "to",
          "type": "address"
        },
        {
          "internalType": "address",
          "name": "ERC20Address",
          "type": "address"
        },
        {
          "internalType": "uint256",
          "name": "amount",
          "type": "uint256"
        },
        {
          "internalType": "uint256",
          "name": "_fee",
          "type": "uint256"
        },
        {
          "internalType": "uint256",
          "name": "_nonce",
          "type": "uint256"
        }
      ],
      "name": "BridgeFinalizeERC20",
      "outputs": [
        {
          "internalType": "bool",
          "name": "",
          "type": "bool"
        }
      ],
      "stateMutability": "nonpayable",
      "type": "function"
    },
    {
      "inputs": [
        {
          "internalType": "uint256",
          "name": "sourceChainId",
          "type": "uint256"
        },
        {
          "internalType": "uint256",
          "name": "destChainId",
          "type": "uint256"
        },
        {
          "internalType": "address",
          "name": "to",
          "type": "address"
        },
        {
          "internalType": "uint256",
          "name": "amount",
          "type": "uint256"
        },
        {
          "internalType": "uint256",
          "name": "_fee",
          "type": "uint256"
        },
        {
          "internalType": "uint256",
          "name": "_nonce",
          "type": "uint256"
        }
      ],
      "name": "BridgeFinalizeETH",
      "outputs": [
        {
          "internalType": "bool",
          "name": "",
          "type": "bool"
        }
      ],
      "stateMutability": "payable",
      "type": "function"
    },
    {
      "inputs": [
        {
          "internalType": "uint256",
          "name": "sourceChainId",
          "type": "uint256"
        },
        {
          "internalType": "uint256",
          "name": "destChainId",
          "type": "uint256"
        },
        {
          "internalType": "address",
          "name": "to",
          "type": "address"
        },
        {
          "internalType": "uint256",
          "name": "amount",
          "type": "uint256"
        },
        {
          "internalType": "uint256",
          "name": "_fee",
          "type": "uint256"
        },
        {
          "internalType": "uint256",
          "name": "_nonce",
          "type": "uint256"
        }
      ],
      "name": "BridgeFinalizeWETH",
      "outputs": [
        {
          "internalType": "bool",
          "name": "",
          "type": "bool"
        }
      ],
      "stateMutability": "nonpayable",
      "type": "function"
    },
    {
      "inputs": [
        {
          "internalType": "uint256",
          "name": "sourceChainId",
          "type": "uint256"
        },
        {
          "internalType": "uint256",
          "name": "destChainId",
          "type": "uint256"
        },
        {
          "internalType": "address",
          "name": "to",
          "type": "address"
        },
        {
          "internalType": "address",
          "name": "ERC20Address",
          "type": "address"
        },
        {
          "internalType": "uint256",
          "name": "value",
          "type": "uint256"
        }
      ],
      "name": "BridgeInitiateERC20",
      "outputs": [
        {
          "internalType": "bool",
          "name": "",
          "type": "bool"
        }
      ],
      "stateMutability": "nonpayable",
      "type": "function"
    },
    {
      "inputs": [
        {
          "internalType": "uint256",
          "name": "sourceChainId",
          "type": "uint256"
        },
        {
          "internalType": "uint256",
          "name": "destChainId",
          "type": "uint256"
        },
        {
          "internalType": "address",
          "name": "to",
          "type": "address"
        }
      ],
      "name": "BridgeInitiateETH",
      "outputs": [
        {
          "internalType": "bool",
          "name": "",
          "type": "bool"
        }
      ],
      "stateMutability": "payable",
      "type": "function"
    },
    {
      "inputs": [
        {
          "internalType": "uint256",
          "name": "sourceChainId",
          "type": "uint256"
        },
        {
          "internalType": "uint256",
          "name": "destChainId",
          "type": "uint256"
        },
        {
          "internalType": "address",
          "name": "to",
          "type": "address"
        },
        {
          "internalType": "uint256",
          "name": "value",
          "type": "uint256"
        }
      ],
      "name": "BridgeInitiateWETH",
      "outputs": [
        {
          "internalType": "bool",
          "name": "",
          "type": "bool"
        }
      ],
      "stateMutability": "nonpayable",
      "type": "function"
    },
    {
      "inputs": [],
      "name": "ClaimAll",
      "outputs": [],
      "stateMutability": "nonpayable",
      "type": "function"
    },
    {
      "inputs": [
        {
          "internalType": "address",
          "name": "_token",
          "type": "address"
        }
      ],
      "name": "ClaimSimpleAsset",
      "outputs": [],
      "stateMutability": "nonpayable",
      "type": "function"
    },
    {
      "inputs": [
        {
          "components": [
            {
              "internalType": "uint32",
              "name": "startTimestamp",
              "type": "uint32"
            },
            {
              "internalType": "uint32",
              "name": "endTimestamp",
              "type": "uint32"
            },
            {
              "internalType": "address",
              "name": "token",
              "type": "address"
            },
            {
              "internalType": "uint256",
              "name": "TotalAmount",
              "type": "uint256"
            },
            {
              "internalType": "uint256",
              "name": "TotalFee",
              "type": "uint256"
            },
            {
              "internalType": "uint256",
              "name": "TotalFeeClaimed",
              "type": "uint256"
            },
            {
              "internalType": "bool",
              "name": "IsCompleted",
              "type": "bool"
            }
          ],
          "internalType": "struct IL1Pool.Pool[]",
          "name": "CompletePools",
          "type": "tuple[]"
        }
      ],
      "name": "CompletePoolAndNew",
      "outputs": [],
      "stateMutability": "payable",
      "type": "function"
    },
    {
      "inputs": [],
      "name": "DEFAULT_ADMIN_ROLE",
      "outputs": [
        {
          "internalType": "bytes32",
          "name": "",
          "type": "bytes32"
        }
      ],
      "stateMutability": "view",
      "type": "function"
    },
    {
      "inputs": [
        {
          "internalType": "address",
          "name": "_token",
          "type": "address"
        },
        {
          "internalType": "uint256",
          "name": "_amount",
          "type": "uint256"
        }
      ],
      "name": "DepositAndStaking",
      "outputs": [],
      "stateMutability": "payable",
      "type": "function"
    },
    {
      "inputs": [
        {
          "internalType": "address",
          "name": "_token",
          "type": "address"
        },
        {
          "internalType": "uint256",
          "name": "_amount",
          "type": "uint256"
        }
      ],
      "name": "DepositAndStakingERC20",
      "outputs": [],
      "stateMutability": "nonpayable",
      "type": "function"
    },
    {
      "inputs": [],
      "name": "DepositAndStakingETH",
      "outputs": [],
      "stateMutability": "payable",
      "type": "function"
    },
    {
      "inputs": [
        {
          "internalType": "uint256",
          "name": "amount",
          "type": "uint256"
        }
      ],
      "name": "DepositAndStakingWETH",
      "outputs": [],
      "stateMutability": "nonpayable",
      "type": "function"
    },
    {
      "inputs": [
        {
          "internalType": "address",
          "name": "",
          "type": "address"
        }
      ],
      "name": "FeePoolValue",
      "outputs": [
        {
          "internalType": "uint256",
          "name": "",
          "type": "uint256"
        }
      ],
      "stateMutability": "view",
      "type": "function"
    },
    {
      "inputs": [
        {
          "internalType": "uint256",
          "name": "chainId",
          "type": "uint256"
        }
      ],
      "name": "IsSupportChainId",
      "outputs": [
        {
          "internalType": "bool",
          "name": "",
          "type": "bool"
        }
      ],
      "stateMutability": "view",
      "type": "function"
    },
    {
      "inputs": [
        {
          "internalType": "address",
          "name": "ERC20Address",
          "type": "address"
        }
      ],
      "name": "IsSupportStableCoin",
      "outputs": [
        {
          "internalType": "bool",
          "name": "",
          "type": "bool"
        }
      ],
      "stateMutability": "view",
      "type": "function"
    },
    {
      "inputs": [
        {
          "internalType": "address",
          "name": "",
          "type": "address"
        }
      ],
      "name": "IsSupportToken",
      "outputs": [
        {
          "internalType": "bool",
          "name": "",
          "type": "bool"
        }
      ],
      "stateMutability": "view",
      "type": "function"
    },
    {
      "inputs": [],
      "name": "L2WETH",
      "outputs": [
        {
          "internalType": "address",
          "name": "",
          "type": "address"
        }
      ],
      "stateMutability": "view",
      "type": "function"
    },
    {
      "inputs": [
        {
          "internalType": "address",
          "name": "",
          "type": "address"
        }
      ],
      "name": "MinStakeAmount",
      "outputs": [
        {
          "internalType": "uint256",
          "name": "",
          "type": "uint256"
        }
      ],
      "stateMutability": "view",
      "type": "function"
    },
    {
      "inputs": [],
      "name": "MinTransferAmount",
      "outputs": [
        {
          "internalType": "uint256",
          "name": "",
          "type": "uint256"
        }
      ],
      "stateMutability": "view",
      "type": "function"
    },
    {
      "inputs": [],
      "name": "PerFee",
      "outputs": [
        {
          "internalType": "uint256",
          "name": "",
          "type": "uint256"
        }
      ],
      "stateMutability": "view",
      "type": "function"
    },
    {
      "inputs": [
        {
          "internalType": "address",
          "name": "",
          "type": "address"
        },
        {
          "internalType": "uint256",
          "name": "",
          "type": "uint256"
        }
      ],
      "name": "Pools",
      "outputs": [
        {
          "internalType": "uint32",
          "name": "startTimestamp",
          "type": "uint32"
        },
        {
          "internalType": "uint32",
          "name": "endTimestamp",
          "type": "uint32"
        },
        {
          "internalType": "address",
          "name": "token",
          "type": "address"
        },
        {
          "internalType": "uint256",
          "name": "TotalAmount",
          "type": "uint256"
        },
        {
          "internalType": "uint256",
          "name": "TotalFee",
          "type": "uint256"
        },
        {
          "internalType": "uint256",
          "name": "TotalFeeClaimed",
          "type": "uint256"
        },
        {
          "internalType": "bool",
          "name": "IsCompleted",
          "type": "bool"
        }
      ],
      "stateMutability": "view",
      "type": "function"
    },
    {
      "inputs": [],
      "name": "ReLayer",
      "outputs": [
        {
          "internalType": "bytes32",
          "name": "",
          "type": "bytes32"
        }
      ],
      "stateMutability": "view",
      "type": "function"
    },
    {
      "inputs": [
        {
          "internalType": "address",
          "name": "_token",
          "type": "address"
        },
        {
          "internalType": "address",
          "name": "to",
          "type": "address"
        },
        {
          "internalType": "uint256",
          "name": "_amount",
          "type": "uint256"
        }
      ],
      "name": "SendAssertToUser",
      "outputs": [
        {
          "internalType": "bool",
          "name": "",
          "type": "bool"
        }
      ],
      "stateMutability": "payable",
      "type": "function"
    },
    {
      "inputs": [
        {
          "internalType": "address",
          "name": "_token",
          "type": "address"
        },
        {
          "internalType": "bool",
          "name": "_isSupport",
          "type": "bool"
        },
        {
          "internalType": "uint32",
          "name": "startTimes",
          "type": "uint32"
        }
      ],
      "name": "SetSupportToken",
      "outputs": [],
      "stateMutability": "nonpayable",
      "type": "function"
    },
    {
      "inputs": [
        {
          "internalType": "uint256",
          "name": "",
          "type": "uint256"
        }
      ],
      "name": "SupportTokens",
      "outputs": [
        {
          "internalType": "address",
          "name": "",
          "type": "address"
        }
      ],
      "stateMutability": "view",
      "type": "function"
    },
    {
      "inputs": [
        {
          "internalType": "uint256",
          "name": "Blockchain",
          "type": "uint256"
        },
        {
          "internalType": "address",
          "name": "_token",
          "type": "address"
        },
        {
          "internalType": "address",
          "name": "_to",
          "type": "address"
        },
        {
          "internalType": "uint256",
          "name": "_amount",
          "type": "uint256"
        }
      ],
      "name": "TransferAssertToBridge",
      "outputs": [],
      "stateMutability": "nonpayable",
      "type": "function"
    },
    {
      "inputs": [
        {
          "internalType": "address",
          "name": "",
          "type": "address"
        },
        {
          "internalType": "uint256",
          "name": "",
          "type": "uint256"
        }
      ],
      "name": "Users",
      "outputs": [
        {
          "internalType": "bool",
          "name": "isClaimed",
          "type": "bool"
        },
        {
          "internalType": "address",
          "name": "token",
          "type": "address"
        },
        {
          "internalType": "uint256",
          "name": "StartPoolId",
          "type": "uint256"
        },
        {
          "internalType": "uint256",
          "name": "EndPoolId",
          "type": "uint256"
        },
        {
          "internalType": "uint256",
          "name": "Amount",
          "type": "uint256"
        }
      ],
      "stateMutability": "view",
      "type": "function"
    },
    {
      "inputs": [
        {
          "internalType": "address",
          "name": "",
          "type": "address"
        }
      ],
      "name": "balances",
      "outputs": [
        {
          "internalType": "uint256",
          "name": "",
          "type": "uint256"
        }
      ],
      "stateMutability": "view",
      "type": "function"
    },
    {
      "inputs": [
        {
          "internalType": "address",
          "name": "_token",
          "type": "address"
        },
        {
          "internalType": "uint256",
          "name": "_index",
          "type": "uint256"
        }
      ],
      "name": "getPool",
      "outputs": [
        {
          "components": [
            {
              "internalType": "uint32",
              "name": "startTimestamp",
              "type": "uint32"
            },
            {
              "internalType": "uint32",
              "name": "endTimestamp",
              "type": "uint32"
            },
            {
              "internalType": "address",
              "name": "token",
              "type": "address"
            },
            {
              "internalType": "uint256",
              "name": "TotalAmount",
              "type": "uint256"
            },
            {
              "internalType": "uint256",
              "name": "TotalFee",
              "type": "uint256"
            },
            {
              "internalType": "uint256",
              "name": "TotalFeeClaimed",
              "type": "uint256"
            },
            {
              "internalType": "bool",
              "name": "IsCompleted",
              "type": "bool"
            }
          ],
          "internalType": "struct IL1Pool.Pool",
          "name": "",
          "type": "tuple"
        }
      ],
      "stateMutability": "view",
      "type": "function"
    },
    {
      "inputs": [
        {
          "internalType": "address",
          "name": "_token",
          "type": "address"
        }
      ],
      "name": "getPoolLength",
      "outputs": [
        {
          "internalType": "uint256",
          "name": "",
          "type": "uint256"
        }
      ],
      "stateMutability": "view",
      "type": "function"
    },
    {
      "inputs": [
        {
          "internalType": "bytes32",
          "name": "role",
          "type": "bytes32"
        }
      ],
      "name": "getRoleAdmin",
      "outputs": [
        {
          "internalType": "bytes32",
          "name": "",
          "type": "bytes32"
        }
      ],
      "stateMutability": "view",
      "type": "function"
    },
    {
      "inputs": [
        {
          "internalType": "address",
          "name": "_user",
          "type": "address"
        }
      ],
      "name": "getUser",
      "outputs": [
        {
          "components": [
            {
              "internalType": "bool",
              "name": "isClaimed",
              "type": "bool"
            },
            {
              "internalType": "address",
              "name": "token",
              "type": "address"
            },
            {
              "internalType": "uint256",
              "name": "StartPoolId",
              "type": "uint256"
            },
            {
              "internalType": "uint256",
              "name": "EndPoolId",
              "type": "uint256"
            },
            {
              "internalType": "uint256",
              "name": "Amount",
              "type": "uint256"
            }
          ],
          "internalType": "struct IL1Pool.User[]",
          "name": "",
          "type": "tuple[]"
        }
      ],
      "stateMutability": "view",
      "type": "function"
    },
    {
      "inputs": [
        {
          "internalType": "address",
          "name": "_user",
          "type": "address"
        },
        {
          "internalType": "uint256",
          "name": "_index",
          "type": "uint256"
        }
      ],
      "name": "getUser",
      "outputs": [
        {
          "components": [
            {
              "internalType": "bool",
              "name": "isClaimed",
              "type": "bool"
            },
            {
              "internalType": "address",
              "name": "token",
              "type": "address"
            },
            {
              "internalType": "uint256",
              "name": "StartPoolId",
              "type": "uint256"
            },
            {
              "internalType": "uint256",
              "name": "EndPoolId",
              "type": "uint256"
            },
            {
              "internalType": "uint256",
              "name": "Amount",
              "type": "uint256"
            }
          ],
          "internalType": "struct IL1Pool.User",
          "name": "",
          "type": "tuple"
        }
      ],
      "stateMutability": "view",
      "type": "function"
    },
    {
      "inputs": [
        {
          "internalType": "address",
          "name": "_user",
          "type": "address"
        }
      ],
      "name": "getUserLength",
      "outputs": [
        {
          "internalType": "uint256",
          "name": "",
          "type": "uint256"
        }
      ],
      "stateMutability": "view",
      "type": "function"
    },
    {
      "inputs": [
        {
          "internalType": "bytes32",
          "name": "role",
          "type": "bytes32"
        },
        {
          "internalType": "address",
          "name": "account",
          "type": "address"
        }
      ],
      "name": "grantRole",
      "outputs": [],
      "stateMutability": "nonpayable",
      "type": "function"
    },
    {
      "inputs": [
        {
          "internalType": "bytes32",
          "name": "role",
          "type": "bytes32"
        },
        {
          "internalType": "address",
          "name": "account",
          "type": "address"
        }
      ],
      "name": "hasRole",
      "outputs": [
        {
          "internalType": "bool",
          "name": "",
          "type": "bool"
        }
      ],
      "stateMutability": "view",
      "type": "function"
    },
    {
      "inputs": [
        {
          "internalType": "address",
          "name": "_MultisigWallet",
          "type": "address"
        },
        {
          "internalType": "contract IMessageManager",
          "name": "_messageManager",
          "type": "address"
        }
      ],
      "name": "initialize",
      "outputs": [],
      "stateMutability": "nonpayable",
      "type": "function"
    },
    {
      "inputs": [],
      "name": "messageManager",
      "outputs": [
        {
          "internalType": "contract IMessageManager",
          "name": "",
          "type": "address"
        }
      ],
      "stateMutability": "view",
      "type": "function"
    },
    {
      "inputs": [],
      "name": "pause",
      "outputs": [],
      "stateMutability": "nonpayable",
      "type": "function"
    },
    {
      "inputs": [],
      "name": "paused",
      "outputs": [
        {
          "internalType": "bool",
          "name": "",
          "type": "bool"
        }
      ],
      "stateMutability": "view",
      "type": "function"
    },
    {
      "inputs": [],
      "name": "periodTime",
      "outputs": [
        {
          "internalType": "uint32",
          "name": "",
          "type": "uint32"
        }
      ],
      "stateMutability": "view",
      "type": "function"
    },
    {
      "inputs": [
        {
          "internalType": "bytes32",
          "name": "role",
          "type": "bytes32"
        },
        {
          "internalType": "address",
          "name": "callerConfirmation",
          "type": "address"
        }
      ],
      "name": "renounceRole",
      "outputs": [],
      "stateMutability": "nonpayable",
      "type": "function"
    },
    {
      "inputs": [
        {
          "internalType": "bytes32",
          "name": "role",
          "type": "bytes32"
        },
        {
          "internalType": "address",
          "name": "account",
          "type": "address"
        }
      ],
      "name": "revokeRole",
      "outputs": [],
      "stateMutability": "nonpayable",
      "type": "function"
    },
    {
      "inputs": [
        {
          "internalType": "address",
          "name": "_token",
          "type": "address"
        },
        {
          "internalType": "uint256",
          "name": "_amount",
          "type": "uint256"
        }
      ],
      "name": "setMinStakeAmount",
      "outputs": [],
      "stateMutability": "nonpayable",
      "type": "function"
    },
    {
      "inputs": [
        {
          "internalType": "uint256",
          "name": "_MinTransferAmount",
          "type": "uint256"
        }
      ],
      "name": "setMinTransferAmount",
      "outputs": [],
      "stateMutability": "nonpayable",
      "type": "function"
    },
    {
      "inputs": [
        {
          "internalType": "uint256",
          "name": "_PerFee",
          "type": "uint256"
        }
      ],
      "name": "setPerFee",
      "outputs": [],
      "stateMutability": "nonpayable",
      "type": "function"
    },
    {
      "inputs": [
        {
          "internalType": "address",
          "name": "ERC20Address",
          "type": "address"
        },
        {
          "internalType": "bool",
          "name": "isValid",
          "type": "bool"
        }
      ],
      "name": "setSupportStableCoin",
      "outputs": [],
      "stateMutability": "nonpayable",
      "type": "function"
    },
    {
      "inputs": [
        {
          "internalType": "uint256",
          "name": "chainId",
          "type": "uint256"
        },
        {
          "internalType": "bool",
          "name": "isValid",
          "type": "bool"
        }
      ],
      "name": "setValidChainId",
      "outputs": [],
      "stateMutability": "nonpayable",
      "type": "function"
    },
    {
      "inputs": [
        {
          "internalType": "bytes4",
          "name": "interfaceId",
          "type": "bytes4"
        }
      ],
      "name": "supportsInterface",
      "outputs": [
        {
          "internalType": "bool",
          "name": "",
          "type": "bool"
        }
      ],
      "stateMutability": "view",
      "type": "function"
    },
    {
      "inputs": [],
      "name": "unpause",
      "outputs": [],
      "stateMutability": "nonpayable",
      "type": "function"
    }
  ],
  "bytecode": "0x608060405234801562000010575f80fd5b506200001b62000021565b620000d5565b7ff0c57e16840df040f15088dc2f81fe391c3923bec73e23a9662efc9c229c6a00805468010000000000000000900460ff1615620000725760405163f92ee8a960e01b815260040160405180910390fd5b80546001600160401b0390811614620000d25780546001600160401b0319166001600160401b0390811782556040519081527fc7f505b2f371ae2175ee4913f4499e1f2633a7b5936321eed1cdaeb6115181d29060200160405180910390a15b50565b61508680620000e35f395ff3fe6080604052600436106102f3575f3560e01c806373c23be911610189578063cb314fab116100d8578063dd0c346011610092578063f91fa9a81161006d578063f91fa9a8146109f1578063fa86184814610a10578063faeb96a514610a24578063ff2bf64f14610a43575f80fd5b8063dd0c346014610971578063ed06da8714610986578063f8fcc2aa146109bd575f80fd5b8063cb314fab14610893578063cb4f04ad146108b2578063cd01c665146108e6578063d547741f14610905578063d73f14e514610924578063dac2956814610943575f80fd5b80639ab0b65211610143578063b1887e9b1161011e578063b1887e9b14610822578063b33280dd14610836578063b92e639614610855578063bc42493d14610874575f80fd5b80639ab0b652146107e95780639b442380146107fc578063a217fddf1461080f575f80fd5b806373c23be91461075d5780638456cb591461077057806391d148541461078457806392d84738146107a357806395455eef146107c257806396f984e6146107e1575f80fd5b80633f4ba83a116102455780635b5b9ea2116101ff578063650c2276116101da578063650c2276146106d05780636d6a78bf146106ef5780636f77926b1461070357806372fe6a7e1461072f575f80fd5b80635b5b9ea2146106085780635c975abb1461068e578063626417b5146106b1575f80fd5b80633f4ba83a146105005780634663cdc814610514578063485cc955146105805780634dfaef841461059f57806354dc027e146105be5780635765a4eb146105e9575f80fd5b8063248a9ca3116102b05780633338562c1161028b5780633338562c1461049c57806336568abe146104af57806338731c47146104ce5780633b0230f0146104e1575f80fd5b8063248a9ca31461043157806327e235e3146104505780632f2ff15d1461047b575f80fd5b806301ffc9a7146102f757806309dc480c1461032b57806310875a131461034e57806313e8544e146103845780631ca2f173146103d55780631d31fac014610400575b5f80fd5b348015610302575f80fd5b50610316610311366004614792565b610a6f565b60405190151581526020015b60405180910390f35b348015610336575f80fd5b5061034060015481565b604051908152602001610322565b348015610359575f80fd5b505f5461036c906001600160a01b031681565b6040516001600160a01b039091168152602001610322565b34801561038f575f80fd5b506103a361039e3660046147cd565b610aa5565b6040805195151586526001600160a01b039094166020860152928401919091526060830152608082015260a001610322565b3480156103e0575f80fd5b506103406103ef3660046147f7565b600c6020525f908152604090205481565b34801561040b575f80fd5b5060075461041c9063ffffffff1681565b60405163ffffffff9091168152602001610322565b34801561043c575f80fd5b5061034061044b366004614812565b610afb565b34801561045b575f80fd5b5061034061046a3660046147f7565b60096020525f908152604090205481565b348015610486575f80fd5b5061049a610495366004614829565b610b1b565b005b61049a6104aa3660046148e5565b610b3d565b3480156104ba575f80fd5b5061049a6104c9366004614829565b610ea3565b6103166104dc3660046149fb565b610ed6565b3480156104ec575f80fd5b506103166104fb366004614a4a565b61106a565b34801561050b575f80fd5b5061049a61136a565b34801561051f575f80fd5b5061053361052e3660046147cd565b61137f565b6040805163ffffffff98891681529790961660208801526001600160a01b03909416948601949094526060850191909152608084015260a0830191909152151560c082015260e001610322565b34801561058b575f80fd5b5061049a61059a366004614a98565b6113f0565b3480156105aa575f80fd5b5061049a6105b93660046147cd565b611522565b3480156105c9575f80fd5b506103406105d83660046147f7565b60066020525f908152604090205481565b3480156105f4575f80fd5b506103166106033660046149fb565b6117b5565b348015610613575f80fd5b506106276106223660046147cd565b6119aa565b6040516103229190815163ffffffff9081168252602080840151909116908201526040808301516001600160a01b031690820152606080830151908201526080808301519082015260a0808301519082015260c09182015115159181019190915260e00190565b348015610699575f80fd5b505f805160206150118339815191525460ff16610316565b3480156106bc575f80fd5b5061036c6106cb366004614812565b611a8c565b3480156106db575f80fd5b5061049a6106ea366004614812565b611ab4565b3480156106fa575f80fd5b5061049a611ac4565b34801561070e575f80fd5b5061072261071d3660046147f7565b611b3a565b6040516103229190614afc565b34801561073a575f80fd5b50610316610749366004614812565b5f9081526003602052604090205460ff1690565b61031661076b366004614b49565b611be8565b34801561077b575f80fd5b5061049a611da9565b34801561078f575f80fd5b5061031661079e366004614829565b611dbb565b3480156107ae575f80fd5b506103166107bd366004614b87565b611df1565b3480156107cd575f80fd5b5061049a6107dc3660046147f7565b611fb2565b61049a6126fd565b61049a6107f73660046147cd565b612a10565b61031661080a366004614be7565b612aa1565b34801561081a575f80fd5b506103405f81565b34801561082d575f80fd5b5061036c612cb8565b348015610841575f80fd5b5061049a610850366004614c1d565b612d26565b348015610860575f80fd5b5061049a61086f366004614812565b612d5b565b34801561087f575f80fd5b5061049a61088e366004614812565b612dae565b34801561089e575f80fd5b5061049a6108ad3660046147cd565b613127565b3480156108bd575f80fd5b506103406108cc3660046147f7565b6001600160a01b03165f908152600b602052604090205490565b3480156108f1575f80fd5b50610316610900366004614c49565b61318a565b348015610910575f80fd5b5061049a61091f366004614829565b613515565b34801561092f575f80fd5b5061049a61093e366004614c85565b613531565b34801561094e575f80fd5b5061031661095d3660046147f7565b60086020525f908152604090205460ff1681565b34801561097c575f80fd5b5061034060025481565b348015610991575f80fd5b506103166109a03660046147f7565b6001600160a01b03165f9081526004602052604090205460ff1690565b3480156109c8575f80fd5b506103406109d73660046147f7565b6001600160a01b03165f908152600a602052604090205490565b3480156109fc575f80fd5b5061049a610a0b366004614ca8565b61355b565b348015610a1b575f80fd5b50610340613707565b348015610a2f575f80fd5b5061049a610a3e366004614cdd565b61374e565b348015610a4e575f80fd5b50610a62610a5d3660046147cd565b613a44565b6040516103229190614d21565b5f6001600160e01b03198216637965db0b60e01b1480610a9f57506301ffc9a760e01b6001600160e01b03198316145b92915050565b600b602052815f5260405f208181548110610abe575f80fd5b5f918252602090912060049091020180546001820154600283015460039093015460ff831695506101009092046001600160a01b03169350919085565b5f9081525f80516020614ff1833981519152602052604090206001015490565b610b2482610afb565b610b2d81613b06565b610b378383613b10565b50505050565b60ff19610b5860015f80516020614fd1833981519152614d43565b604051602001610b6a91815260200190565b6040516020818303038152906040528051906020012016610b8a81613b06565b5f5b8251811015610e9e575f838281518110610ba857610ba8614d56565b60200260200101516040015190505f6001600a5f846001600160a01b03166001600160a01b031681526020019081526020015f2080549050610bea9190614d43565b6001600160a01b0383165f908152600a60205260409020805491925060019183908110610c1957610c19614d56565b905f5260205f2090600502016004015f6101000a81548160ff021916908315150217905550848381518110610c5057610c50614d56565b602002602001015160800151600a5f846001600160a01b03166001600160a01b031681526020019081526020015f208281548110610c9057610c90614d56565b905f5260205f209060050201600201819055505f600a5f846001600160a01b03166001600160a01b031681526020019081526020015f208281548110610cd857610cd8614d56565b5f91825260208083206005909202909101546001600160a01b0386168352600a8252604092839020835160e0810190945263ffffffff6401000000009092048216808552600754909550909392830191610d33911685614d6a565b63ffffffff168152602001856001600160a01b03168152602001600a5f876001600160a01b03166001600160a01b031681526020019081526020015f208581548110610d8157610d81614d56565b5f918252602080832060059283020160019081015485528482018490526040808601859052606095860185905287548083018955978552938290208651979093029092018054868301518786015163ffffffff998a1667ffffffffffffffff1990931692909217640100000000999091169890980297909717600160401b600160e01b031916600160401b6001600160a01b039889160217815593850151918401919091556080840151600284015560a0840151600384015560c0909301516004909201805460ff19169215159290921790915551848152918516917fb6f449f07ceaf55392c9899e0797c6529908ae827c2d498c682e90d42c241167910160405180910390a25050508080610e9690614d87565b915050610b8c565b505050565b6001600160a01b0381163314610ecc5760405163334bd91960e11b815260040160405180910390fd5b610e9e8282613bb8565b5f8681526003602052604081205460ff16610f0c57604051632ef6974160e11b8152600481018890526024015b60405180910390fd5b5f8681526003602052604090205460ff16610f3d57604051632ef6974160e11b815260048101879052602401610f03565b604051309085156108fc029086905f818181858888f19350505050158015610f67573d5f803e3d5ffd5b5073eeeeeeeeeeeeeeeeeeeeeeeeeeeeeeeeeeeeeeee5f90815260056020525f80516020614f718339815191528054869290610fa4908490614d43565b90915550505f54604051631eb65ffb60e01b81526001600160a01b0390911690631eb65ffb90610fe2908a908a908a908a908a908a90600401614d9f565b5f604051808303815f87803b158015610ff9575f80fd5b505af115801561100b573d5f803e3d5ffd5b5050604080518a8152602081018a90529081018790526001600160a01b03881692503091507f61d99af9dd09bd984d42cc07939d4cba4388e85aa29b3cc88df954e4ca719f329060600160405180910390a35060019695505050505050565b5f8581526003602052604081205460ff1661109b57604051632ef6974160e11b815260048101879052602401610f03565b5f8581526003602052604090205460ff166110cc57604051632ef6974160e11b815260048101869052602401610f03565b6001600160a01b0383165f9081526004602052604090205460ff1661110f57604051631e859bc960e01b81526001600160a01b0384166004820152602401610f03565b6040516370a0823160e01b81523060048201525f906001600160a01b038516906370a0823190602401602060405180830381865afa158015611153573d5f803e3d5ffd5b505050506040513d601f19601f820116820180604052508101906111779190614dd0565b905061118e6001600160a01b038516333086613c31565b6040516370a0823160e01b81523060048201525f906001600160a01b038616906370a0823190602401602060405180830381865afa1580156111d2573d5f803e3d5ffd5b505050506040513d601f19601f820116820180604052508101906111f69190614dd0565b90505f6112038383614d43565b73eeeeeeeeeeeeeeeeeeeeeeeeeeeeeeeeeeeeeeee5f90815260056020525f80516020614f7183398151915280549293508792909190611244908490614de7565b90915550506002545f90620f42409061125d9084614dfa565b6112679190614e11565b90506112738183614d43565b6001600160a01b0388165f9081526006602052604081208054929450839290919061129f908490614de7565b90915550505f5460405163305f478560e21b81526001600160a01b039091169063c17d1e14906112db908d908d908d908c908890600401614e30565b5f604051808303815f87803b1580156112f2575f80fd5b505af1158015611304573d5f803e3d5ffd5b5050604080518d8152602081018d90529081018590526001600160a01b03808c1693503392508a16907fece797608c81cc46a09f9859cf8ef650ec541b5da6989f30acb30dba9b8a40a49060600160405180910390a45060019998505050505050505050565b5f61137481613b06565b61137c613c8b565b50565b600a602052815f5260405f208181548110611398575f80fd5b5f9182526020909120600590910201805460018201546002830154600384015460049094015463ffffffff80851697506401000000008504169550600160401b9093046001600160a01b031693919290919060ff1687565b7ff0c57e16840df040f15088dc2f81fe391c3923bec73e23a9662efc9c229c6a008054600160401b810460ff16159067ffffffffffffffff165f811580156114355750825b90505f8267ffffffffffffffff1660011480156114515750303b155b90508115801561145f575080155b1561147d5760405163f92ee8a960e01b815260040160405180910390fd5b845467ffffffffffffffff1916600117855583156114a757845460ff60401b1916600160401b1785555b6114af613cea565b6114b7613cf2565b6114c18787613d02565b6007805463ffffffff1916621baf80179055831561151957845460ff60401b19168555604051600181527fc7f505b2f371ae2175ee4913f4499e1f2633a7b5936321eed1cdaeb6115181d29060200160405180910390a15b50505050505050565b61152a613d48565b611532613d7f565b6001600160a01b0382165f9081526008602052604090205460ff16611575576040516305fd61ad60e01b81526001600160a01b0383166004820152602401610f03565b6001600160a01b0382165f908152600c60205260409020548110156115d1576001600160a01b0382165f908152600c6020526040908190205490516327500c6d60e21b8152600481019190915260248101829052604401610f03565b6115e66001600160a01b038316333084613c31565b6001600160a01b0382165f908152600a602052604081205461160a90600190614d43565b6001600160a01b0384165f908152600a60205260409020805491925042918390811061163857611638614d56565b5f91825260209091206005909102015463ffffffff16111561173e57335f908152600b60209081526040808320815160a0810183528481526001600160a01b0388811682860181815283860189815260608501898152608086018c8152875460018082018a55988c528a8c2097516004909102909701805494516001600160a81b0319909516971515610100600160a81b03191697909717610100949096169390930294909417855551948401949094559051600283015591516003909101558352600a909152902080548391908390811061171657611716614d56565b905f5260205f2090600502016001015f8282546117339190614de7565b9091555061175a9050565b604051637d58ebb960e01b815260048101829052602401610f03565b6040518281526001600160a01b0384169033907f3ac7d3823c11677fba9479ed26f696a3f17e16a5a5c39162fa6d183905aa67359060200160405180910390a3506117b160015f8051602061503183398151915255565b5050565b5f8681526003602052604081205460ff166117e657604051632ef6974160e11b815260048101889052602401610f03565b5f8681526003602052604090205460ff1661181757604051632ef6974160e11b815260048101879052602401610f03565b5f611820612cb8565b6040516323b872dd60e01b81529091506001600160a01b038216906323b872dd906118539030908a908a90600401614e5c565b6020604051808303815f875af115801561186f573d5f803e3d5ffd5b505050506040513d601f19601f820116820180604052508101906118939190614e80565b5073c02aaa39b223fe8d0a0e5c4f27ead9083c756cc25f90815260056020527fa550ba85c46b24b567d2e17cd597f2283877afab43603f46d5de7858f1bdb73180548792906118e3908490614d43565b90915550505f54604051631eb65ffb60e01b81526001600160a01b0390911690631eb65ffb90611921908b908b908b908b908b908b90600401614d9f565b5f604051808303815f87803b158015611938575f80fd5b505af115801561194a573d5f803e3d5ffd5b5050604080518b8152602081018b90529081018890526001600160a01b03891692503091507f7dc80be13e04000533f3763be4b9359a36a0aeb0daabbf09fd96c3a275c1cc149060600160405180910390a3506001979650505050505050565b6040805160e0810182525f8082526020808301829052828401829052606083018290526080830182905260a0830182905260c083018290526001600160a01b0386168252600a905291909120805483908110611a0857611a08614d56565b5f9182526020918290206040805160e081018252600593909302909101805463ffffffff808216855264010000000082041694840194909452600160401b9093046001600160a01b0316908201526001820154606082015260028201546080820152600382015460a082015260049091015460ff16151560c0820152905092915050565b600d8181548110611a9b575f80fd5b5f918252602090912001546001600160a01b0316905081565b5f611abe81613b06565b50600255565b611acc613d48565b611ad4613d7f565b5f5b600d54811015611b2157611b0f600d8281548110611af657611af6614d56565b5f918252602090912001546001600160a01b0316611fb2565b80611b1981614d87565b915050611ad6565b50611b3860015f8051602061503183398151915255565b565b6001600160a01b0381165f908152600b60209081526040808320805482518185028101850190935280835260609492939192909184015b82821015611bdd575f8481526020908190206040805160a08101825260048602909201805460ff81161515845261010090046001600160a01b03168385015260018082015492840192909252600281015460608401526003015460808301529083529092019101611b71565b505050509050919050565b5f60ff19611c0460015f80516020614fd1833981519152614d43565b604051602001611c1691815260200190565b6040516020818303038152906040528051906020012016611c3681613b06565b6001600160a01b0385165f9081526004602052604090205460ff16611c7957604051631e859bc960e01b81526001600160a01b0386166004820152602401610f03565b73eeeeeeeeeeeeeeeeeeeeeeeeeeeeeeeeeeeeeeed196001600160a01b03861601611cf85782471015611cbf57604051632c1d501360e11b815260040160405180910390fd5b6040516001600160a01b0385169084156108fc029085905f818181858888f19350505050158015611cf2573d5f803e3d5ffd5b50611d9e565b6040516370a0823160e01b815230600482015283906001600160a01b038716906370a0823190602401602060405180830381865afa158015611d3c573d5f803e3d5ffd5b505050506040513d601f19601f82011682018060405250810190611d609190614dd0565b1015611d8a576040516311745b6160e21b81526001600160a01b0386166004820152602401610f03565b611d9e6001600160a01b0386168585613daf565b506001949350505050565b5f611db381613b06565b61137c613de0565b5f9182525f80516020614ff1833981519152602090815260408084206001600160a01b0393909316845291905290205460ff1690565b5f8781526003602052604081205460ff16611e2257604051632ef6974160e11b815260048101899052602401610f03565b5f8781526003602052604090205460ff16611e5357604051632ef6974160e11b815260048101889052602401610f03565b6001600160a01b0385165f9081526004602052604090205460ff16611e9657604051631e859bc960e01b81526001600160a01b0386166004820152602401610f03565b611eab6001600160a01b038616308887613c31565b73eeeeeeeeeeeeeeeeeeeeeeeeeeeeeeeeeeeeeeee5f90815260056020525f80516020614f718339815191528054869290611ee7908490614d43565b90915550505f54604051631eb65ffb60e01b81526001600160a01b0390911690631eb65ffb90611f25908b908b908b908a908a908a90600401614d9f565b5f604051808303815f87803b158015611f3c575f80fd5b505af1158015611f4e573d5f803e3d5ffd5b5050604080518b8152602081018b90529081018790526001600160a01b03808a1693503092508816907f0f50ec03884adc78b9840a90cf8805a70ffe160f18d6b83198103b6fade443fe9060600160405180910390a4506001979650505050505050565b611fba613d48565b611fc2613d7f565b6001600160a01b0381165f9081526008602052604090205460ff16612005576040516305fd61ad60e01b81526001600160a01b0382166004820152602401610f03565b6001600160a01b0381165f908152600a6020526040812054900361203e57604051637d58ebb960e01b81525f6004820152602401610f03565b5f5b335f908152600b60205260409020548110156126e657335f908152600b60205260409020805482916001600160a01b038516918390811061208357612083614d56565b5f91825260209091206004909102015461010090046001600160a01b03160361257657335f908152600b602052604090208054829081106120c6576120c6614d56565b5f91825260209091206004909102015460ff16156120e457506126d4565b6001600160a01b0383165f908152600a602052604081205461210890600190614d43565b335f908152600b602052604090208054919250908390811061212c5761212c614d56565b905f5260205f20906004020160030154600a5f866001600160a01b03166001600160a01b031681526020019081526020015f20828154811061217057612170614d56565b905f5260205f2090600502016001015f82825461218d9190614d43565b9091555050335f908152600b602052604081208054829190859081106121b5576121b5614d56565b905f5260205f2090600402016003015490505f600b5f336001600160a01b03166001600160a01b031681526020019081526020015f2085815481106121fc576121fc614d56565b905f5260205f2090600402016001015490508381111561222f5760405163374c934360e11b815260040160405180910390fd5b805b84811015612383576001600160a01b0388165f908152600a602052604090205461225d90600190614d43565b81111561228057604051637d58ebb960e01b815260048101829052602401610f03565b6001600160a01b0388165f908152600a602052604081208054839081106122a9576122a9614d56565b905f5260205f20906005020160010154600a5f8b6001600160a01b03166001600160a01b031681526020019081526020015f2083815481106122ed576122ed614d56565b905f5260205f20906005020160020154856123089190614dfa565b6123129190614e11565b905061231e8186614de7565b6001600160a01b038a165f908152600a60205260409020805491965082918490811061234c5761234c614d56565b905f5260205f2090600502016003015f8282546123699190614de7565b9091555082915061237b905081614d87565b915050612231565b505f83116123bf5760405162461bcd60e51b8152602060048201526009602482015268139bc814995dd85c9960ba1b6044820152606401610f03565b6123c98383614de7565b335f908152600b602052604090208054919350600191879081106123ef576123ef614d56565b5f9182526020909120600490910201805460ff19169115159190911790556001600160a01b03871673eeeeeeeeeeeeeeeeeeeeeeeeeeeeeeeeeeeeeeed190161246257604051339083156108fc029084905f818181858888f1935050505015801561245c573d5f803e3d5ffd5b50612514565b73c02aaa39b223fe8d0a0e5c4f27ead9083c756cc1196001600160a01b038816016125005760405163a9059cbb60e01b81523360048201526024810183905273c02aaa39b223fe8d0a0e5c4f27ead9083c756cc29063a9059cbb906044016020604051808303815f875af11580156124dc573d5f803e3d5ffd5b505050506040513d601f19601f8201168201806040525081019061245c9190614e80565b6125146001600160a01b0388163384613daf565b6001600160a01b038716337f991c329471ab5230e2301ee30d0d6fba5906e32411d5d154d5a8c278d021a2ab838761254c8888614d43565b604080519384526020840192909252908201526060810187905260800160405180910390a3505050505b335f908152600b6020526040902054600110156126d257335f908152600b6020526040902080546125a990600190614d43565b815481106125b9576125b9614d56565b905f5260205f209060040201600b5f336001600160a01b03166001600160a01b031681526020019081526020015f2082815481106125f9576125f9614d56565b5f91825260208083208454600490930201805460ff909316151560ff1984168117825585546001600160a01b03610100918290041602610100600160a81b03199091166001600160a81b03199094169390931792909217825560018085015490830155600280850154908301556003938401549390910192909255338152600b9091526040902080548061268f5761268f614e9b565b5f8281526020812060045f199093019283020180546001600160a81b03191681556001810182905560028101829055600301559055816126ce81614eaf565b9250505b505b806126de81614eca565b915050612040565b5061137c60015f8051602061503183398151915255565b612705613d48565b61270d613d7f565b73eeeeeeeeeeeeeeeeeeeeeeeeeeeeeeeeeeeeeeee5f52600c6020527f36dda7fac5d19118789d83982ba89ab2ea0a81d18d22af2919c731e22f75f227543410156127b35773eeeeeeeeeeeeeeeeeeeeeeeeeeeeeeeeeeeeeeee5f52600c6020527f36dda7fac5d19118789d83982ba89ab2ea0a81d18d22af2919c731e22f75f227546040516327500c6d60e21b81526004810191909152346024820152604401610f03565b73eeeeeeeeeeeeeeeeeeeeeeeeeeeeeeeeeeeeeeee5f908152600a6020525f80516020614fb1833981519152546127ec90600190614d43565b73eeeeeeeeeeeeeeeeeeeeeeeeeeeeeeeeeeeeeeee5f908152600a6020525f80516020614fb1833981519152549192500361283d57604051637d58ebb960e01b815260016004820152602401610f03565b73eeeeeeeeeeeeeeeeeeeeeeeeeeeeeeeeeeeeeeee5f52600a6020525f80516020614fb183398151915280544291908390811061287c5761287c614d56565b5f91825260209091206005909102015463ffffffff16111561299d57335f908152600b60209081526040808320815160a08101835284815273eeeeeeeeeeeeeeeeeeeeeeeeeeeeeeeeeeeeeeee818501818152938201878152606083018781523460808501818152865460018082018955978b52898b2096516004909102909601805498516001600160a81b0319909916961515610100600160a81b031916969096176101006001600160a01b03909916989098029790971785559151948401949094559251600283015592516003909101559252600a90525f80516020614fb183398151915280548390811061297557612975614d56565b905f5260205f2090600502016001015f8282546129929190614de7565b909155506129c49050565b6129a8816001614de7565b604051637d58ebb960e01b8152600401610f0391815260200190565b60405134815233907fe7466ea83435490635fc76a5f33da4815758ab48b1d45858f0452ca6465569379060200160405180910390a250611b3860015f8051602061503183398151915255565b612a18613d48565b612a20613d7f565b3415612a3357612a2e6126fd565b612a8b565b73c02aaa39b223fe8d0a0e5c4f27ead9083c756cc1196001600160a01b03831601612a6157612a2e81612dae565b6001600160a01b0382165f9081526008602052604090205460ff1615612a8b57612a8b8282611522565b6117b160015f8051602061503183398151915255565b5f8381526003602052604081205460ff16612ad257604051632ef6974160e11b815260048101859052602401610f03565b5f8381526003602052604090205460ff16612b0357604051632ef6974160e11b815260048101849052602401610f03565b600154341015612b33576001546040516358f8331360e11b81526004810191909152346024820152604401610f03565b73eeeeeeeeeeeeeeeeeeeeeeeeeeeeeeeeeeeeeeee5f90815260056020525f80516020614f718339815191528054349290612b6f908490614de7565b90915550506002545f90620f424090612b889034614dfa565b612b929190614e11565b90505f612b9f8234614d43565b73eeeeeeeeeeeeeeeeeeeeeeeeeeeeeeeeeeeeeeee5f90815260066020527fa2e5aefc6e2cbe2917a296f0fd89c5f915c487c803db1d98eccb43f14012d71180549293508492909190612bf3908490614de7565b90915550505f5460405163305f478560e21b81526001600160a01b039091169063c17d1e1490612c2f9089908990899034908990600401614e30565b5f604051808303815f87803b158015612c46575f80fd5b505af1158015612c58573d5f803e3d5ffd5b505060408051898152602081018990529081018490526001600160a01b03871692503391507f0b671089787b6d29f730bc690214e6a7e28064fef5a3cdbb9b930a22fac01dc59060600160405180910390a36001925050505b9392505050565b5f4662082750819003612cd3576004605360981b0191505090565b8061044d03612cf757734f9a0e7fd2bf6067db6994cf12e4495df938e6e991505090565b80600a03612d0d576006602160991b0191505090565b604051639474dee160e01b815260040160405180910390fd5b5f612d3081613b06565b506001600160a01b03919091165f908152600460205260409020805460ff1916911515919091179055565b60ff19612d7660015f80516020614fd1833981519152614d43565b604051602001612d8891815260200190565b6040516020818303038152906040528051906020012016612da881613b06565b50600155565b612db6613d48565b612dbe613d7f565b73c02aaa39b223fe8d0a0e5c4f27ead9083c756cc25f52600c6020527fc87f3dae70d3ac23e82424b4132d779583ae145fc334a52160c2d1a246c2bc2b54811015612e51575f8052600c6020527f13649b2456f1b42fef0f0040b3aaeabcd21a76a0f3f5defd4f583839455116e8546040516327500c6d60e21b8152600481019190915260248101829052604401610f03565b6040516323b872dd60e01b815273c02aaa39b223fe8d0a0e5c4f27ead9083c756cc2906323b872dd90612e8c90339030908690600401614e5c565b6020604051808303815f875af1158015612ea8573d5f803e3d5ffd5b505050506040513d601f19601f82011682018060405250810190612ecc9190614e80565b5073c02aaa39b223fe8d0a0e5c4f27ead9083c756cc25f908152600a6020525f80516020614f9183398151915254612f0690600190614d43565b73c02aaa39b223fe8d0a0e5c4f27ead9083c756cc25f52600a6020525f80516020614f9183398151915280549192509082908110612f4657612f46614d56565b5f91825260209091206004600590920201015460ff1615612f7d576040516311cf1b0760e31b815260048101829052602401610f03565b73c02aaa39b223fe8d0a0e5c4f27ead9083c756cc25f52600a6020525f80516020614f91833981519152805442919083908110612fbc57612fbc614d56565b5f91825260209091206005909102015463ffffffff1611156130db57335f908152600b60209081526040808320815160a08101835284815273c02aaa39b223fe8d0a0e5c4f27ead9083c756cc281850181815293820187815260608301878152608084018a8152855460018181018855968a52888a2095516004909102909501805497516001600160a01b031661010002610100600160a81b0319961515969096166001600160a81b0319909816979097179490941786559051938501939093559151600284015551600390920191909155909152600a90525f80516020614f918339815191528054839190839081106130b8576130b8614d56565b905f5260205f2090600502016001015f8282546130d59190614de7565b90915550505b60405182815233907fc138e3bd6d13eefa5cb01c0d35c5794001141efaf4e5ad888cad059935f833839060200160405180910390a25061137c60015f8051602061503183398151915255565b5f61313181613b06565b6001600160a01b0383165f818152600c602052604090819020849055517ff54d3b756d286b6b08e5d4eda6dfe5b135664abf029e58e637cbf013c442c9509061317d9085815260200190565b60405180910390a2505050565b5f8481526003602052604081205460ff166131bb576040516363b5c9db60e01b815260048101869052602401610f03565b5f8481526003602052604090205460ff166131ec576040516363b5c9db60e01b815260048101859052602401610f03565b5f6131f5612cb8565b6040516370a0823160e01b81523060048201529091505f906001600160a01b038316906370a0823190602401602060405180830381865afa15801561323c573d5f803e3d5ffd5b505050506040513d601f19601f820116820180604052508101906132609190614dd0565b6040516323b872dd60e01b81529091506001600160a01b038316906323b872dd9061329390339030908990600401614e5c565b6020604051808303815f875af11580156132af573d5f803e3d5ffd5b505050506040513d601f19601f820116820180604052508101906132d39190614e80565b506040516370a0823160e01b81523060048201525f906001600160a01b038416906370a0823190602401602060405180830381865afa158015613318573d5f803e3d5ffd5b505050506040513d601f19601f8201168201806040525081019061333c9190614dd0565b90505f6133498383614d43565b905060015481101561337c576001546040516358f8331360e11b8152600481019190915260248101829052604401610f03565b73c02aaa39b223fe8d0a0e5c4f27ead9083c756cc25f90815260056020527fa550ba85c46b24b567d2e17cd597f2283877afab43603f46d5de7858f1bdb73180548392906133cb908490614de7565b90915550506002545f90620f4240906133e49084614dfa565b6133ee9190614e11565b90506133fa8183614d43565b73c02aaa39b223fe8d0a0e5c4f27ead9083c756cc25f90815260066020527f5e5777fab7622aff3c042c1ece74307c2e9d699a9da444f416c35f2e1def28a58054929450839290919061344e908490614de7565b90915550505f5460405163305f478560e21b81526001600160a01b039091169063c17d1e149061348a908d908d908d908d908890600401614e30565b5f604051808303815f87803b1580156134a1575f80fd5b505af11580156134b3573d5f803e3d5ffd5b5050604080518d8152602081018d90529081018590526001600160a01b038b1692503391507fcb9e641636f35317739cff2833f1831bf3a25b930b5615ada09367c080d64a899060600160405180910390a35060019998505050505050505050565b61351e82610afb565b61352781613b06565b610b378383613bb8565b5f61353b81613b06565b505f91825260036020526040909120805460ff1916911515919091179055565b60ff1961357660015f80516020614fd1833981519152614d43565b60405160200161358891815260200190565b60405160208183030381529060405280519060200120166135a881613b06565b6001600160a01b0384165f9081526008602052604090205460ff166135eb576040516305fd61ad60e01b81526001600160a01b0385166004820152602401610f03565b84620827500361367e57604051636bb825d760e11b815261753060048201525f90730d7e906bd9cafa154b048cfa766cc1e54e39af9b9063d7704bae90602401602060405180830381865afa158015613646573d5f803e3d5ffd5b505050506040513d601f19601f8201168201806040525081019061366a9190614dd0565b905061367885858584613e28565b506136aa565b8461044d036136975761369284848461411c565b6136aa565b84600a03612d0d57613692848484614286565b826001600160a01b0316846001600160a01b03167f08ffba656e4ac665e1aa4bb6a342e1a69d4cc12fd751ac862fa3fe27b0c7524a87856040516136f8929190918252602082015260400190565b60405180910390a35050505050565b60ff1961372260015f80516020614fd1833981519152614d43565b60405160200161373491815260200190565b604051602081830303815290604052805190602001201681565b5f61375881613b06565b6001600160a01b0384165f9081526008602052604090205460ff16156137a45760405163411befff60e11b81526001600160a01b03851660048201528315156024820152604401610f03565b6001600160a01b0384165f908152600860209081526040808320805460ff1916871515179055600a90915290819020815160e0810190925260075490919081906137f49063ffffffff1686614ee1565b63ffffffff908116825285811660208084018290526001600160a01b03808b1660408087018290525f60608089018290526080808a0183905260a0808b0184905260c09a8b018490528c5460018181018f559d85528885208d5160059092020180548e8b01518f890151909a16600160401b02600160401b600160e01b03199a8e166401000000000267ffffffffffffffff19909216938e16939093171798909816178755918b01519b86019b909b5599890151600285015598880151600384015596909501516004909101805491151560ff19909216919091179055928552600a835293839020835160e08101909452938352600754918301916138fa911686614d6a565b63ffffffff90811682526001600160a01b0388811660208085018290525f60408087018290526060808801839052608080890184905260a09889018490528a5460018082018d559b85528585208b5160059092020180548c8801518d870151938c1667ffffffffffffffff199092169190911764010000000091909b160299909917600160401b600160e01b031916600160401b9190981602969096178755880151868a015593870151600286015594860151600385015560c0909501516004909301805460ff191693151593909317909255600d805495860181559092527fd7b6990105719101dabeb77144f2a3385c8033acd3af97e9423a695e81ad1eb590930180546001600160a01b031916841790555185151581527fc8c34f23fafb34e68119c1d231ef03d0d47225b15e2c4de3efbefa14b0181d86910160405180910390a250505050565b613a7c6040518060a001604052805f151581526020015f6001600160a01b031681526020015f81526020015f81526020015f81525090565b6001600160a01b0383165f908152600b60205260409020805483908110613aa557613aa5614d56565b5f9182526020918290206040805160a081018252600493909302909101805460ff81161515845261010090046001600160a01b0316938301939093526001830154908201526002820154606082015260039091015460808201529392505050565b61137c8133614441565b5f5f80516020614ff1833981519152613b298484611dbb565b613ba8575f848152602082815260408083206001600160a01b03871684529091529020805460ff19166001179055613b5e3390565b6001600160a01b0316836001600160a01b0316857f2f8788117e7eff1d82e926ec794901d17c78024a50270940304540a733656f0d60405160405180910390a46001915050610a9f565b5f915050610a9f565b5092915050565b5f5f80516020614ff1833981519152613bd18484611dbb565b15613ba8575f848152602082815260408083206001600160a01b0387168085529252808320805460ff1916905551339287917ff6391f5c32d9c69d2a47ea670b442974b53935d1edc7fd64eb21e047a839171b9190a46001915050610a9f565b610b3784856001600160a01b03166323b872dd868686604051602401613c5993929190614e5c565b604051602081830303815290604052915060e01b6020820180516001600160e01b03838183161783525050505061447a565b613c936144db565b5f80516020615011833981519152805460ff191681557f5db9ee0a495bf2e6ff9c91a7834c1ba4fdd244a5e8aa4e537bd38aeae4b073aa335b6040516001600160a01b03909116815260200160405180910390a150565b611b3861450a565b613cfa61450a565b611b38614553565b613d0a61450a565b67016345785d8a0000600155612710600255613d265f83610b1b565b5f80546001600160a01b0319166001600160a01b039290921691909117905550565b5f80516020615031833981519152805460011901613d7957604051633ee5aeb560e01b815260040160405180910390fd5b60029055565b5f805160206150118339815191525460ff1615611b385760405163d93c066560e01b815260040160405180910390fd5b6040516001600160a01b03838116602483015260448201839052610e9e91859182169063a9059cbb90606401613c59565b613de8613d7f565b5f80516020615011833981519152805460ff191660011781557f62e78cea01bee320cd4e420270b5ea74000d11b0c9f74754ebdbfc544b05a25833613ccc565b73eeeeeeeeeeeeeeeeeeeeeeeeeeeeeeeeeeeeeeed196001600160a01b03851601613edb57736ea73e05adc79974b931123675ea8f78ffdacdf063ce0b63ce613e718385614de7565b85855a6040516001600160e01b031960e087901b1681526001600160a01b039093166004840152602483019190915260448201526064015f604051808303818588803b158015613ebf575f80fd5b505af1158015613ed1573d5f803e3d5ffd5b5050505050610b37565b73c02aaa39b223fe8d0a0e5c4f27ead9083c756cc1196001600160a01b0385160161400d5760405163095ea7b360e01b8152737ac440cae8eb6328de4fa621163a792c1ea9d4fe6004820152602481018390526001600160a01b0385169063095ea7b3906044016020604051808303815f875af1158015613f5e573d5f803e3d5ffd5b505050506040513d601f19601f82011682018060405250810190613f829190614e80565b50737ac440cae8eb6328de4fa621163a792c1ea9d4fe63f219fa668585855a6040516001600160e01b031960e087901b1681526001600160a01b039485166004820152939092166024840152604483015260648201526084015f604051808303815f87803b158015613ff2575f80fd5b505af1158015614004573d5f803e3d5ffd5b50505050610b37565b60405163095ea7b360e01b8152737ac440cae8eb6328de4fa621163a792c1ea9d4fe6004820152602481018390526001600160a01b0385169063095ea7b3906044016020604051808303815f875af115801561406b573d5f803e3d5ffd5b505050506040513d601f19601f8201168201806040525081019061408f9190614e80565b5073d8a791fe2be73eb6e6cf1eb0cb3f36adc9b3f8f963f219fa668585855a6040516001600160e01b031960e087901b1681526001600160a01b039485166004820152939092166024840152604483015260648201526084015b5f604051808303815f87803b158015614100575f80fd5b505af1158015614112573d5f803e3d5ffd5b5050505050505050565b73eeeeeeeeeeeeeeeeeeeeeeeeeeeeeeeeeeeeeeed196001600160a01b0384160161419a5760405163cd58657960e01b8152732a3dd3eb832af982ec71669e178424b10dca2ede9063cd58657990839061418390600190879084908a905f90600401614efe565b5f604051808303818588803b158015614100575f80fd5b60405163095ea7b360e01b8152732a3dd3eb832af982ec71669e178424b10dca2ede6004820152602481018290526001600160a01b0384169063095ea7b3906044016020604051808303815f875af11580156141f8573d5f803e3d5ffd5b505050506040513d601f19601f8201168201806040525081019061421c9190614e80565b5060405163cd58657960e01b8152732a3dd3eb832af982ec71669e178424b10dca2ede9063cd5865799061425d906001908690869089905f90600401614efe565b5f604051808303815f87803b158015614274575f80fd5b505af1158015611519573d5f803e3d5ffd5b73eeeeeeeeeeeeeeeeeeeeeeeeeeeeeeeeeeeeeeed196001600160a01b03841601614342577399c9fc46f92e8a1c0dec1b1747d010903e884be1639a2ac6d5650a064586222083855a6040516001600160e01b031960e087901b1681526001600160a01b03909216600483015263ffffffff166024820152606060448201525f60648201526084015f604051808303818589803b158015614325575f80fd5b5088f1158015614337573d5f803e3d5ffd5b505050505050505050565b5f61434c84614573565b60405163095ea7b360e01b81526010602160991b016004820152602481018490529091506001600160a01b0385169063095ea7b3906044016020604051808303815f875af11580156143a0573d5f803e3d5ffd5b505050506040513d601f19601f820116820180604052508101906143c49190614e80565b507399c9fc46f92e8a1c0dec1b1747d010903e884be163838b2520858386865a6040516001600160e01b031960e088901b1681526001600160a01b0395861660048201529385166024850152939091166044830152606482015263ffffffff91909116608482015260c060a48201525f60c482015260e4016140e9565b61444b8282611dbb565b6117b15760405163e2517d3f60e01b81526001600160a01b038216600482015260248101839052604401610f03565b5f61448e6001600160a01b03841683614690565b905080515f141580156144b25750808060200190518101906144b09190614e80565b155b15610e9e57604051635274afe760e01b81526001600160a01b0384166004820152602401610f03565b5f805160206150118339815191525460ff16611b3857604051638dfc202b60e01b815260040160405180910390fd5b7ff0c57e16840df040f15088dc2f81fe391c3923bec73e23a9662efc9c229c6a0054600160401b900460ff16611b3857604051631afcd79f60e31b815260040160405180910390fd5b61455b61450a565b5f80516020615011833981519152805460ff19169055565b5f73c02aaa39b223fe8d0a0e5c4f27ead9083c756cc1196001600160a01b038316016145a757506006602160991b01919050565b73dac17f958d2ee523a2206206994597c13d831ec6196001600160a01b038316016145e757507394b008aa00579c1307b0ef2c499ad98a8ce58e58919050565b73a0b86991c6218b36c1d19d4a2e9eb0ce3606eb47196001600160a01b038316016146275750730b2c639c533813f4aa9d7837caf62653d097ff85919050565b736b175474e89094c44da98b954eedeac495271d0e196001600160a01b03831601614667575073da10009cbd5d07dd0cecc66161fc93d7c9000da1919050565b6040516305fd61ad60e01b81526001600160a01b0383166004820152602401610f03565b919050565b6060612cb183835f845f80856001600160a01b031684866040516146b49190614f44565b5f6040518083038185875af1925050503d805f81146146ee576040519150601f19603f3d011682016040523d82523d5f602084013e6146f3565b606091505b509150915061470386838361470d565b9695505050505050565b6060826147225761471d82614769565b612cb1565b815115801561473957506001600160a01b0384163b155b1561476257604051639996b31560e01b81526001600160a01b0385166004820152602401610f03565b5080612cb1565b8051156147795780518082602001fd5b604051630a12f52160e11b815260040160405180910390fd5b5f602082840312156147a2575f80fd5b81356001600160e01b031981168114612cb1575f80fd5b6001600160a01b038116811461137c575f80fd5b5f80604083850312156147de575f80fd5b82356147e9816147b9565b946020939093013593505050565b5f60208284031215614807575f80fd5b8135612cb1816147b9565b5f60208284031215614822575f80fd5b5035919050565b5f806040838503121561483a575f80fd5b82359150602083013561484c816147b9565b809150509250929050565b634e487b7160e01b5f52604160045260245ffd5b60405160e0810167ffffffffffffffff8111828210171561488e5761488e614857565b60405290565b604051601f8201601f1916810167ffffffffffffffff811182821017156148bd576148bd614857565b604052919050565b803563ffffffff8116811461468b575f80fd5b801515811461137c575f80fd5b5f60208083850312156148f6575f80fd5b823567ffffffffffffffff8082111561490d575f80fd5b818501915085601f830112614920575f80fd5b81358181111561493257614932614857565b614940848260051b01614894565b818152848101925060e091820284018501918883111561495e575f80fd5b938501935b828510156149ef5780858a03121561497a575f8081fd5b61498261486b565b61498b866148c5565b81526149988787016148c5565b878201526040808701356149ab816147b9565b90820152606086810135908201526080808701359082015260a0808701359082015260c0808701356149dc816148d8565b9082015284529384019392850192614963565b50979650505050505050565b5f805f805f8060c08789031215614a10575f80fd5b86359550602087013594506040870135614a29816147b9565b959894975094956060810135955060808101359460a0909101359350915050565b5f805f805f60a08688031215614a5e575f80fd5b85359450602086013593506040860135614a77816147b9565b92506060860135614a87816147b9565b949793965091946080013592915050565b5f8060408385031215614aa9575f80fd5b8235614ab4816147b9565b9150602083013561484c816147b9565b8051151582526020808201516001600160a01b0316908301526040808201519083015260608082015190830152608090810151910152565b602080825282518282018190525f9190848201906040850190845b81811015614b3d57614b2a838551614ac4565b9284019260a09290920191600101614b17565b50909695505050505050565b5f805f60608486031215614b5b575f80fd5b8335614b66816147b9565b92506020840135614b76816147b9565b929592945050506040919091013590565b5f805f805f805f60e0888a031215614b9d575f80fd5b87359650602088013595506040880135614bb6816147b9565b94506060880135614bc6816147b9565b9699959850939660808101359560a0820135955060c0909101359350915050565b5f805f60608486031215614bf9575f80fd5b83359250602084013591506040840135614c12816147b9565b809150509250925092565b5f8060408385031215614c2e575f80fd5b8235614c39816147b9565b9150602083013561484c816148d8565b5f805f8060808587031215614c5c575f80fd5b84359350602085013592506040850135614c75816147b9565b9396929550929360600135925050565b5f8060408385031215614c96575f80fd5b82359150602083013561484c816148d8565b5f805f8060808587031215614cbb575f80fd5b843593506020850135614ccd816147b9565b92506040850135614c75816147b9565b5f805f60608486031215614cef575f80fd5b8335614cfa816147b9565b92506020840135614d0a816148d8565b9150614d18604085016148c5565b90509250925092565b60a08101610a9f8284614ac4565b634e487b7160e01b5f52601160045260245ffd5b81810381811115610a9f57610a9f614d2f565b634e487b7160e01b5f52603260045260245ffd5b63ffffffff818116838216019080821115613bb157613bb1614d2f565b5f60018201614d9857614d98614d2f565b5060010190565b95865260208601949094526001600160a01b039290921660408501526060840152608083015260a082015260c00190565b5f60208284031215614de0575f80fd5b5051919050565b80820180821115610a9f57610a9f614d2f565b8082028115828204841417610a9f57610a9f614d2f565b5f82614e2b57634e487b7160e01b5f52601260045260245ffd5b500490565b94855260208501939093526001600160a01b039190911660408401526060830152608082015260a00190565b6001600160a01b039384168152919092166020820152604081019190915260600190565b5f60208284031215614e90575f80fd5b8151612cb1816148d8565b634e487b7160e01b5f52603160045260245ffd5b5f600160ff1b8201614ec357614ec3614d2f565b505f190190565b5f6001600160ff1b018201614d9857614d98614d2f565b63ffffffff828116828216039080821115613bb157613bb1614d2f565b63ffffffff9590951685526001600160a01b039384166020860152604085019290925290911660608301521515608082015260c060a082018190525f9082015260e00190565b5f82515f5b81811015614f635760208186018101518583015201614f49565b505f92019182525091905056fea1829a9003092132f585b6ccdd167c19fe9774dbdea4260287e8a8e8ca8185d7d0bcf4df132c65dad73803c5e5e1c826f151a3342680034a8a4c8e5f8eb0c13c3e65e660a0d3d61f62bb0309259c5a3ded6558e90d0e8aff997e553e7b030a7533fe247d78fee2e7fd135c405eda4bd2911c0a73c0a81b36c3bcc967dd06e5ae02dd7bc7dec4dceedda775e58dd541e08a116c6c53815c0bd028192f7b626800cd5ed15c6e187e77e9aee88184c21f4f2182ab5827cb3b7e07fbedcd63f033009b779b17422d0df92223018b32b4d1fa46e071723d6817e2486d003becc55f00a2646970667358221220b5e943765b0cd576f8f2b66b5b1818a1083e41a4a5669b468cf344e2e9e5895164736f6c63430008140033",
  "linkReferences": {},
  "deployedLinkReferences": {}
}